{
  "_format": "hh-sol-artifact-1",
  "contractName": "QuoterV2",
  "sourceName": "contracts/lens/QuoterV2.sol",
  "abi": [
    {
      "inputs": [
        {
          "internalType": "address",
          "name": "_factory",
          "type": "address"
        },
        {
          "internalType": "address",
          "name": "_WETH9",
          "type": "address"
        }
      ],
      "stateMutability": "nonpayable",
      "type": "constructor"
    },
    {
      "inputs": [],
      "name": "WETH9",
      "outputs": [
        {
          "internalType": "address",
          "name": "",
          "type": "address"
        }
      ],
      "stateMutability": "view",
      "type": "function"
    },
    {
      "inputs": [],
      "name": "factory",
      "outputs": [
        {
          "internalType": "address",
          "name": "",
          "type": "address"
        }
      ],
      "stateMutability": "view",
      "type": "function"
    },
    {
      "inputs": [
        {
          "internalType": "int256",
          "name": "amount0Delta",
          "type": "int256"
        },
        {
          "internalType": "int256",
          "name": "amount1Delta",
          "type": "int256"
        },
        {
          "internalType": "bytes",
          "name": "path",
          "type": "bytes"
        }
      ],
      "name": "flareSwapSwapCallback",
      "outputs": [],
      "stateMutability": "view",
      "type": "function"
    },
    {
      "inputs": [
        {
          "internalType": "bytes",
          "name": "path",
          "type": "bytes"
        },
        {
          "internalType": "uint256",
          "name": "amountIn",
          "type": "uint256"
        }
      ],
      "name": "quoteExactInput",
      "outputs": [
        {
          "internalType": "uint256",
          "name": "amountOut",
          "type": "uint256"
        },
        {
          "internalType": "uint160[]",
          "name": "sqrtPriceX96AfterList",
          "type": "uint160[]"
        },
        {
          "internalType": "uint32[]",
          "name": "initializedTicksCrossedList",
          "type": "uint32[]"
        },
        {
          "internalType": "uint256",
          "name": "gasEstimate",
          "type": "uint256"
        }
      ],
      "stateMutability": "nonpayable",
      "type": "function"
    },
    {
      "inputs": [
        {
          "components": [
            {
              "internalType": "address",
              "name": "tokenIn",
              "type": "address"
            },
            {
              "internalType": "address",
              "name": "tokenOut",
              "type": "address"
            },
            {
              "internalType": "uint256",
              "name": "amountIn",
              "type": "uint256"
            },
            {
              "internalType": "uint24",
              "name": "fee",
              "type": "uint24"
            },
            {
              "internalType": "uint160",
              "name": "sqrtPriceLimitX96",
              "type": "uint160"
            }
          ],
          "internalType": "struct IQuoterV2.QuoteExactInputSingleParams",
          "name": "params",
          "type": "tuple"
        }
      ],
      "name": "quoteExactInputSingle",
      "outputs": [
        {
          "internalType": "uint256",
          "name": "amountOut",
          "type": "uint256"
        },
        {
          "internalType": "uint160",
          "name": "sqrtPriceX96After",
          "type": "uint160"
        },
        {
          "internalType": "uint32",
          "name": "initializedTicksCrossed",
          "type": "uint32"
        },
        {
          "internalType": "uint256",
          "name": "gasEstimate",
          "type": "uint256"
        }
      ],
      "stateMutability": "nonpayable",
      "type": "function"
    },
    {
      "inputs": [
        {
          "internalType": "bytes",
          "name": "path",
          "type": "bytes"
        },
        {
          "internalType": "uint256",
          "name": "amountOut",
          "type": "uint256"
        }
      ],
      "name": "quoteExactOutput",
      "outputs": [
        {
          "internalType": "uint256",
          "name": "amountIn",
          "type": "uint256"
        },
        {
          "internalType": "uint160[]",
          "name": "sqrtPriceX96AfterList",
          "type": "uint160[]"
        },
        {
          "internalType": "uint32[]",
          "name": "initializedTicksCrossedList",
          "type": "uint32[]"
        },
        {
          "internalType": "uint256",
          "name": "gasEstimate",
          "type": "uint256"
        }
      ],
      "stateMutability": "nonpayable",
      "type": "function"
    },
    {
      "inputs": [
        {
          "components": [
            {
              "internalType": "address",
              "name": "tokenIn",
              "type": "address"
            },
            {
              "internalType": "address",
              "name": "tokenOut",
              "type": "address"
            },
            {
              "internalType": "uint256",
              "name": "amount",
              "type": "uint256"
            },
            {
              "internalType": "uint24",
              "name": "fee",
              "type": "uint24"
            },
            {
              "internalType": "uint160",
              "name": "sqrtPriceLimitX96",
              "type": "uint160"
            }
          ],
          "internalType": "struct IQuoterV2.QuoteExactOutputSingleParams",
          "name": "params",
          "type": "tuple"
        }
      ],
      "name": "quoteExactOutputSingle",
      "outputs": [
        {
          "internalType": "uint256",
          "name": "amountIn",
          "type": "uint256"
        },
        {
          "internalType": "uint160",
          "name": "sqrtPriceX96After",
          "type": "uint160"
        },
        {
          "internalType": "uint32",
          "name": "initializedTicksCrossed",
          "type": "uint32"
        },
        {
          "internalType": "uint256",
          "name": "gasEstimate",
          "type": "uint256"
        }
      ],
      "stateMutability": "nonpayable",
      "type": "function"
    }
  ],
  "bytecode": "0x60c06040523480156200001157600080fd5b5060405162001c4238038062001c42833981016040819052620000349162000070565b6001600160601b0319606092831b8116608052911b1660a052620000a7565b80516001600160a01b03811681146200006b57600080fd5b919050565b6000806040838503121562000083578182fd5b6200008e8362000053565b91506200009e6020840162000053565b90509250929050565b60805160601c60a05160601c611b67620000db6000398061045b52508061015a528061065252806109d85250611b676000f3fe608060405234801561001057600080fd5b506004361061007d5760003560e01c8063bd21704a1161005b578063bd21704a146100d8578063c45a0155146100fb578063c6a5026a14610103578063cdca1753146101165761007d565b80631902c6d0146100825780632f80bb1d146100975780634aa4a4fc146100c3575b600080fd5b610095610090366004611737565b610129565b005b6100aa6100a53660046116d1565b6102a4565b6040516100ba9493929190611a07565b60405180910390f35b6100cb610459565b6040516100ba9190611964565b6100eb6100e63660046117ef565b61047d565b6040516100ba9493929190611aa2565b6100cb610650565b6100eb6101113660046117ef565b610674565b6100aa6101243660046116d1565b6107ea565b60008313806101385750600082135b61014157600080fd5b600080600061014f84610981565b9250925092506101817f00000000000000000000000000000000000000000000000000000000000000008484846109b2565b5060008060008089136101ad57856001600160a01b0316856001600160a01b031610888a6000036101c8565b846001600160a01b0316866001600160a01b03161089896000035b92509250925060006101db8787876109d1565b9050600080826001600160a01b0316633850c7bd6040518163ffffffff1660e01b815260040160e06040518083038186803b15801561021957600080fd5b505afa15801561022d573d6000803e3d6000fd5b505050506040513d601f19601f820116820180604052508101906102519190611811565b505050505091509150851561027757604051848152826020820152816040820152606081fd5b6000541561028d57600054841461028d57600080fd5b604051858152826020820152816040820152606081fd5b600060608060006102b486610a0f565b67ffffffffffffffff811180156102ca57600080fd5b506040519080825280602002602001820160405280156102f4578160200160208202803683370190505b50925061030086610a0f565b67ffffffffffffffff8111801561031657600080fd5b50604051908082528060200260200182016040528015610340578160200160208202803683370190505b50915060005b60008060006103548a610981565b9250925092506000806000806103b06040518060a00160405280886001600160a01b03168152602001896001600160a01b031681526020018f81526020018762ffffff16815260200160006001600160a01b031681525061047d565b9350935093509350828b89815181106103c557fe5b60200260200101906001600160a01b031690816001600160a01b031681525050818a89815181106103f257fe5b63ffffffff90921660209283029190910190910152929b50968201966001909601958b9261041f8e610a20565b156104345761042d8e610a28565b9d50610444565b8c9b505050505050505050610450565b50505050505050610346565b92959194509250565b7f000000000000000000000000000000000000000000000000000000000000000081565b6020810151815160608301516000928392839283926001600160a01b03808216908416109284926104ae92906109d1565b905086608001516001600160a01b0316600014156104cf5760408701516000555b60005a9050816001600160a01b031663128acb0830856104f28c60400151610a45565b6000038c608001516001600160a01b0316600014610514578c6080015161053a565b876105335773fffd8963efd1fc6a506488495d951d5263988d2561053a565b6401000276a45b8d602001518e606001518f6000015160405160200161055b93929190611911565b6040516020818303038152906040526040518663ffffffff1660e01b815260040161058a959493929190611978565b6040805180830381600087803b1580156105a357600080fd5b505af19250505080156105d3575060408051601f3d908101601f191682019092526105d091810190611714565b60015b610643573d808015610601576040519150601f19603f3d011682016040523d82523d6000602084013e610606565b606091505b505a8203945088608001516001600160a01b03166000141561062757600080555b610632818487610a5b565b975097509750975050505050610649565b50505050505b9193509193565b7f000000000000000000000000000000000000000000000000000000000000000081565b6020810151815160608301516000928392839283926001600160a01b03808216908416109284926106a592906109d1565b905060005a9050816001600160a01b031663128acb0830856106ca8c60400151610a45565b60808d01516001600160a01b0316156106e7578c6080015161070d565b876107065773fffd8963efd1fc6a506488495d951d5263988d2561070d565b6401000276a45b8d600001518e606001518f6020015160405160200161072e93929190611911565b6040516020818303038152906040526040518663ffffffff1660e01b815260040161075d959493929190611978565b6040805180830381600087803b15801561077657600080fd5b505af19250505080156107a6575060408051601f3d908101601f191682019092526107a391810190611714565b60015b610643573d8080156107d4576040519150601f19603f3d011682016040523d82523d6000602084013e6107d9565b606091505b505a82039450610632818487610a5b565b600060608060006107fa86610a0f565b67ffffffffffffffff8111801561081057600080fd5b5060405190808252806020026020018201604052801561083a578160200160208202803683370190505b50925061084686610a0f565b67ffffffffffffffff8111801561085c57600080fd5b50604051908082528060200260200182016040528015610886578160200160208202803683370190505b50915060005b600080600061089a8a610981565b9250925092506000806000806108f66040518060a00160405280896001600160a01b03168152602001886001600160a01b031681526020018f81526020018762ffffff16815260200160006001600160a01b0316815250610674565b9350935093509350828b898151811061090b57fe5b60200260200101906001600160a01b031690816001600160a01b031681525050818a898151811061093857fe5b63ffffffff90921660209283029190910190910152929b50968201966001909601958b926109658e610a20565b15610434576109738e610a28565b9d505050505050505061088c565b6000808061098f8482610b15565b925061099c846014610be1565b90506109a9846017610b15565b91509193909250565b60006109c8856109c3868686610c9d565b610cf3565b95945050505050565b6000610a077f0000000000000000000000000000000000000000000000000000000000000000610a02868686610c9d565b610d16565b949350505050565b80516017601319909101045b919050565b516042111590565b8051606090610a3f90839060179060161901610e12565b92915050565b6000600160ff1b8210610a5757600080fd5b5090565b600080600080600080876001600160a01b0316633850c7bd6040518163ffffffff1660e01b815260040160e06040518083038186803b158015610a9d57600080fd5b505afa158015610ab1573d6000803e3d6000fd5b505050506040513d601f19601f82011682018060405250810190610ad59190611811565b50939650610aea94508d9350610f6f92505050565b91975095509050610b056001600160a01b0389168383610ffc565b9350869250505093509350935093565b600081826014011015610b6f576040805162461bcd60e51b815260206004820152601260248201527f746f416464726573735f6f766572666c6f770000000000000000000000000000604482015290519081900360640190fd5b8160140183511015610bc8576040805162461bcd60e51b815260206004820152601560248201527f746f416464726573735f6f75744f66426f756e64730000000000000000000000604482015290519081900360640190fd5b5001602001516c01000000000000000000000000900490565b600081826003011015610c3b576040805162461bcd60e51b815260206004820152601160248201527f746f55696e7432345f6f766572666c6f77000000000000000000000000000000604482015290519081900360640190fd5b8160030183511015610c94576040805162461bcd60e51b815260206004820152601460248201527f746f55696e7432345f6f75744f66426f756e6473000000000000000000000000604482015290519081900360640190fd5b50016003015190565b610ca56115a0565b826001600160a01b0316846001600160a01b03161115610cc3579192915b50604080516060810182526001600160a01b03948516815292909316602083015262ffffff169181019190915290565b6000610cff8383610d16565b9050336001600160a01b03821614610a3f57600080fd5b600081602001516001600160a01b031682600001516001600160a01b031610610d3e57600080fd5b50805160208083015160409384015184516001600160a01b0394851681850152939091168385015262ffffff166060808401919091528351808403820181526080840185528051908301207fff0000000000000000000000000000000000000000000000000000000000000060a085015294901b6bffffffffffffffffffffffff191660a183015260b58201939093527fa20e9909e6fac267512e30f1441a8a3ecc6e7b2c2584042a2baecdfc9bdbcaaf60d5808301919091528251808303909101815260f5909101909152805191012090565b60608182601f011015610e5d576040805162461bcd60e51b815260206004820152600e60248201526d736c6963655f6f766572666c6f7760901b604482015290519081900360640190fd5b828284011015610ea5576040805162461bcd60e51b815260206004820152600e60248201526d736c6963655f6f766572666c6f7760901b604482015290519081900360640190fd5b81830184511015610efd576040805162461bcd60e51b815260206004820152601160248201527f736c6963655f6f75744f66426f756e6473000000000000000000000000000000604482015290519081900360640190fd5b606082158015610f1c5760405191506000825260208201604052610f66565b6040519150601f8416801560200281840101858101878315602002848b0101015b81831015610f55578051835260209283019201610f3d565b5050858452601f01601f1916604052505b50949350505050565b60008060008351606014610fdb57604484511015610fa85760405162461bcd60e51b8152600401610f9f906119d0565b60405180910390fd5b60048401935083806020019051810190610fc29190611785565b60405162461bcd60e51b8152600401610f9f91906119bd565b83806020019051810190610fef91906118a8565b9250925092509193909250565b60008060008060008060008060088b6001600160a01b031663d0c93a7c6040518163ffffffff1660e01b815260040160206040518083038186803b15801561104357600080fd5b505afa158015611057573d6000803e3d6000fd5b505050506040513d602081101561106d57600080fd5b5051600290810b908c900b8161107f57fe5b0560020b901d905060006101008c6001600160a01b031663d0c93a7c6040518163ffffffff1660e01b815260040160206040518083038186803b1580156110c557600080fd5b505afa1580156110d9573d6000803e3d6000fd5b505050506040513d60208110156110ef57600080fd5b5051600290810b908d900b8161110157fe5b0560020b8161110c57fe5b079050600060088d6001600160a01b031663d0c93a7c6040518163ffffffff1660e01b815260040160206040518083038186803b15801561114c57600080fd5b505afa158015611160573d6000803e3d6000fd5b505050506040513d602081101561117657600080fd5b5051600290810b908d900b8161118857fe5b0560020b901d905060006101008e6001600160a01b031663d0c93a7c6040518163ffffffff1660e01b815260040160206040518083038186803b1580156111ce57600080fd5b505afa1580156111e2573d6000803e3d6000fd5b505050506040513d60208110156111f857600080fd5b5051600290810b908e900b8161120a57fe5b0560020b8161121557fe5b07905060008160ff166001901b8f6001600160a01b0316635339c296856040518263ffffffff1660e01b8152600401808260010b815260200191505060206040518083038186803b15801561126957600080fd5b505afa15801561127d573d6000803e3d6000fd5b505050506040513d602081101561129357600080fd5b50511611801561131957508d6001600160a01b031663d0c93a7c6040518163ffffffff1660e01b815260040160206040518083038186803b1580156112d757600080fd5b505afa1580156112eb573d6000803e3d6000fd5b505050506040513d602081101561130157600080fd5b5051600290810b908d900b8161131357fe5b0760020b155b801561132a57508b60020b8d60020b135b945060008360ff166001901b8f6001600160a01b0316635339c296876040518263ffffffff1660e01b8152600401808260010b815260200191505060206040518083038186803b15801561137d57600080fd5b505afa158015611391573d6000803e3d6000fd5b505050506040513d60208110156113a757600080fd5b50511611801561142d57508d6001600160a01b031663d0c93a7c6040518163ffffffff1660e01b815260040160206040518083038186803b1580156113eb57600080fd5b505afa1580156113ff573d6000803e3d6000fd5b505050506040513d602081101561141557600080fd5b5051600290810b908e900b8161142757fe5b0760020b155b801561143e57508b60020b8d60020b125b95508160010b8460010b128061146a57508160010b8460010b14801561146a57508060ff168360ff1611155b156114805783995082975081985080965061148d565b8199508097508398508296505b505060001960ff87161b9150505b8560010b8760010b1361155d578560010b8760010b14156114c25760001960ff858103161c165b6000818c6001600160a01b0316635339c2968a6040518263ffffffff1660e01b8152600401808260010b815260200191505060206040518083038186803b15801561150c57600080fd5b505afa158015611520573d6000803e3d6000fd5b505050506040513d602081101561153657600080fd5b505116905061154481611585565b61ffff169890980197505060019095019460001961149b565b811561156a576001880397505b8215611577576001880397505b505050505050509392505050565b6000805b8215610a3f57600019830190921691600101611589565b604080516060810182526000808252602082018190529181019190915290565b600082601f8301126115d0578081fd5b81356115e36115de82611af0565b611acc565b8181528460208386010111156115f7578283fd5b816020850160208301379081016020019190915292915050565b8051600281900b8114610a1b57600080fd5b600060a08284031215611634578081fd5b60405160a0810181811067ffffffffffffffff8211171561165157fe5b604052905080823561166281611b42565b8152602083013561167281611b42565b602082015260408381013590820152606083013562ffffff8116811461169757600080fd5b60608201526116a8608084016116b4565b60808201525092915050565b8035610a1b81611b42565b805161ffff81168114610a1b57600080fd5b600080604083850312156116e3578182fd5b823567ffffffffffffffff8111156116f9578283fd5b611705858286016115c0565b95602094909401359450505050565b60008060408385031215611726578182fd5b505080516020909101519092909150565b60008060006060848603121561174b578081fd5b8335925060208401359150604084013567ffffffffffffffff81111561176f578182fd5b61177b868287016115c0565b9150509250925092565b600060208284031215611796578081fd5b815167ffffffffffffffff8111156117ac578182fd5b8201601f810184136117bc578182fd5b80516117ca6115de82611af0565b8181528560208385010111156117de578384fd5b6109c8826020830160208601611b12565b600060a08284031215611800578081fd5b61180a8383611623565b9392505050565b600080600080600080600060e0888a03121561182b578283fd5b875161183681611b42565b965061184460208901611611565b9550611852604089016116bf565b9450611860606089016116bf565b935061186e608089016116bf565b925060a088015160ff81168114611883578283fd5b60c08901519092508015158114611898578182fd5b8091505092959891949750929550565b6000806000606084860312156118bc578081fd5b8351925060208401516118ce81611b42565b91506118dc60408501611611565b90509250925092565b600081518084526118fd816020860160208601611b12565b601f01601f19169290920160200192915050565b606093841b6bffffffffffffffffffffffff19908116825260e89390931b7fffffff0000000000000000000000000000000000000000000000000000000000166014820152921b166017820152602b0190565b6001600160a01b0391909116815260200190565b60006001600160a01b038088168352861515602084015285604084015280851660608401525060a060808301526119b260a08301846118e5565b979650505050505050565b60006020825261180a60208301846118e5565b60208082526010908201527f556e6578706563746564206572726f7200000000000000000000000000000000604082015260600190565b600060808201868352602060808185015281875180845260a0860191508289019350845b81811015611a505784516001600160a01b031683529383019391830191600101611a2b565b505084810360408601528651808252908201925081870190845b81811015611a8c57825163ffffffff1685529383019391830191600101611a6a565b5050505060609290920192909252949350505050565b9384526001600160a01b0392909216602084015263ffffffff166040830152606082015260800190565b60405181810167ffffffffffffffff81118282101715611ae857fe5b604052919050565b600067ffffffffffffffff821115611b0457fe5b50601f01601f191660200190565b60005b83811015611b2d578181015183820152602001611b15565b83811115611b3c576000848401525b50505050565b6001600160a01b0381168114611b5757600080fd5b5056fea164736f6c6343000706000a",
  "linkReferences": {},
  "deployedLinkReferences": {}
}