{
  "_format": "hh-sol-artifact-1",
  "contractName": "NonfungibleTokenPositionDescriptor",
  "sourceName": "contracts/NonfungibleTokenPositionDescriptor.sol",
  "abi": [
    {
      "inputs": [
        {
          "internalType": "address",
          "name": "_WETH9",
          "type": "address"
        },
        {
          "internalType": "bytes32",
          "name": "_nativeCurrencyLabelBytes",
          "type": "bytes32"
        }
      ],
      "stateMutability": "nonpayable",
      "type": "constructor"
    },
    {
      "inputs": [],
      "name": "WETH9",
      "outputs": [
        {
          "internalType": "address",
          "name": "",
          "type": "address"
        }
      ],
      "stateMutability": "view",
      "type": "function"
    },
    {
      "inputs": [
        {
          "internalType": "address",
          "name": "token0",
          "type": "address"
        },
        {
          "internalType": "address",
          "name": "token1",
          "type": "address"
        },
        {
          "internalType": "uint256",
          "name": "chainId",
          "type": "uint256"
        }
      ],
      "name": "flipRatio",
      "outputs": [
        {
          "internalType": "bool",
          "name": "",
          "type": "bool"
        }
      ],
      "stateMutability": "view",
      "type": "function"
    },
    {
      "inputs": [],
      "name": "nativeCurrencyLabel",
      "outputs": [
        {
          "internalType": "string",
          "name": "",
          "type": "string"
        }
      ],
      "stateMutability": "view",
      "type": "function"
    },
    {
      "inputs": [],
      "name": "nativeCurrencyLabelBytes",
      "outputs": [
        {
          "internalType": "bytes32",
          "name": "",
          "type": "bytes32"
        }
      ],
      "stateMutability": "view",
      "type": "function"
    },
    {
      "inputs": [
        {
          "internalType": "address",
          "name": "token",
          "type": "address"
        },
        {
          "internalType": "uint256",
          "name": "chainId",
          "type": "uint256"
        }
      ],
      "name": "tokenRatioPriority",
      "outputs": [
        {
          "internalType": "int256",
          "name": "",
          "type": "int256"
        }
      ],
      "stateMutability": "view",
      "type": "function"
    },
    {
      "inputs": [
        {
          "internalType": "contract INonfungiblePositionManager",
          "name": "positionManager",
          "type": "address"
        },
        {
          "internalType": "uint256",
          "name": "tokenId",
          "type": "uint256"
        }
      ],
      "name": "tokenURI",
      "outputs": [
        {
          "internalType": "string",
          "name": "",
          "type": "string"
        }
      ],
      "stateMutability": "view",
      "type": "function"
    }
  ],
  "bytecode": "0x60c060405234801561001057600080fd5b5060405161140f38038061140f83398101604081905261002f9161004a565b60609190911b6001600160601b03191660805260a052610082565b6000806040838503121561005c578182fd5b82516001600160a01b0381168114610072578283fd5b6020939093015192949293505050565b60805160601c60a05161134e6100c16000398061019952806101cd5280610269525080610107528061014c528061050c5280610560525061134e6000f3fe608060405234801561001057600080fd5b50600436106100725760003560e01c8063a18246e211610050578063a18246e2146100d5578063b7af3cdc146100dd578063e9dc6375146100f257610072565b80634aa4a4fc146100775780637e5af771146100955780639d7b0ea8146100b5575b600080fd5b61007f610105565b60405161008c91906111a0565b60405180910390f35b6100a86100a3366004610ea6565b610129565b60405161008c91906111b4565b6100c86100c3366004610ee6565b610148565b60405161008c91906111bf565b6100c8610197565b6100e56101bb565b60405161008c91906111c8565b6100e5610100366004610ee6565b6102c9565b7f000000000000000000000000000000000000000000000000000000000000000081565b60006101358383610148565b61013f8584610148565b13949350505050565b60007f00000000000000000000000000000000000000000000000000000000000000006001600160a01b0316836001600160a01b0316141561018d5750606319610191565b5060645b92915050565b7f000000000000000000000000000000000000000000000000000000000000000081565b606060005b60208110801561020857507f000000000000000000000000000000000000000000000000000000000000000081602081106101f757fe5b1a60f81b6001600160f81b03191615155b15610215576001016101c0565b60008167ffffffffffffffff8111801561022e57600080fd5b506040519080825280601f01601f191660200182016040528015610259576020820181803683370190505b50905060005b828110156102c2577f0000000000000000000000000000000000000000000000000000000000000000816020811061029357fe5b1a60f81b8282815181106102a357fe5b60200101906001600160f81b031916908160001a90535060010161025f565b5091505090565b60606000806000806000876001600160a01b03166399fbab88886040518263ffffffff1660e01b81526004016102ff91906111bf565b6101806040518083038186803b15801561031857600080fd5b505afa15801561032c573d6000803e3d6000fd5b505050506040513d601f19601f82011682018060405250810190610350919061106b565b5050505050965096509650965096505050600061040e896001600160a01b031663c45a01556040518163ffffffff1660e01b815260040160206040518083038186803b15801561039f57600080fd5b505afa1580156103b3573d6000803e3d6000fd5b505050506040513d601f19601f820116820180604052508101906103d79190610e83565b6040518060600160405280896001600160a01b03168152602001886001600160a01b031681526020018762ffffff168152506107d9565b9050600061041f87876100a36108bd565b90506000811561042f5787610431565b865b9050600082156104415787610443565b885b90506000846001600160a01b0316633850c7bd6040518163ffffffff1660e01b815260040160e06040518083038186803b15801561048057600080fd5b505afa158015610494573d6000803e3d6000fd5b505050506040513d601f19601f820116820180604052508101906104b89190610fc2565b505050505091505073__$cea9be979eee3d87fb124d6cbb244bb0b5$__63c49917d7604051806101c001604052808f8152602001866001600160a01b03168152602001856001600160a01b031681526020017f00000000000000000000000000000000000000000000000000000000000000006001600160a01b0316876001600160a01b0316146105515761054c876108c1565b610559565b6105596101bb565b81526020017f00000000000000000000000000000000000000000000000000000000000000006001600160a01b0316866001600160a01b0316146105a5576105a0866108c1565b6105ad565b6105ad6101bb565b8152602001866001600160a01b031663313ce5676040518163ffffffff1660e01b815260040160206040518083038186803b1580156105eb57600080fd5b505afa1580156105ff573d6000803e3d6000fd5b505050506040513d601f19601f820116820180604052508101906106239190611051565b60ff168152602001856001600160a01b031663313ce5676040518163ffffffff1660e01b815260040160206040518083038186803b15801561066457600080fd5b505afa158015610678573d6000803e3d6000fd5b505050506040513d601f19601f8201168201806040525081019061069c9190611051565b60ff16815260200187151581526020018a60020b81526020018960020b81526020018460020b8152602001886001600160a01b031663d0c93a7c6040518163ffffffff1660e01b815260040160206040518083038186803b15801561070057600080fd5b505afa158015610714573d6000803e3d6000fd5b505050506040513d601f19601f820116820180604052508101906107389190610f11565b60020b81526020018b62ffffff168152602001886001600160a01b03168152506040518263ffffffff1660e01b815260040161077491906111db565b60006040518083038186803b15801561078c57600080fd5b505af41580156107a0573d6000803e3d6000fd5b505050506040513d6000823e601f3d908101601f191682016040526107c89190810190610f2b565b9d9c50505050505050505050505050565b600081602001516001600160a01b031682600001516001600160a01b03161061080157600080fd5b50805160208083015160409384015184516001600160a01b0394851681850152939091168385015262ffffff166060808401919091528351808403820181526080840185528051908301206001600160f81b031960a085015294901b6bffffffffffffffffffffffff191660a183015260b58201939093527fa20e9909e6fac267512e30f1441a8a3ecc6e7b2c2584042a2baecdfc9bdbcaaf60d5808301919091528251808303909101815260f5909101909152805191012090565b4690565b606060006108d6836395d89b4160e01b6108fb565b90508051600014156108f3576108eb83610b50565b9150506108f6565b90505b919050565b60408051600481526024810182526020810180517bffffffffffffffffffffffffffffffffffffffffffffffffffffffff167fffffffff0000000000000000000000000000000000000000000000000000000085161781529151815160609360009384936001600160a01b03891693919290918291908083835b602083106109945780518252601f199092019160209182019101610975565b6001836020036101000a038019825116818451168082178552505050505050905001915050600060405180830381855afa9150503d80600081146109f4576040519150601f19603f3d011682016040523d82523d6000602084013e6109f9565b606091505b5091509150811580610a0a57508051155b15610a28576040518060200160405280600081525092505050610191565b805160201415610a60576000818060200190516020811015610a4957600080fd5b50519050610a5681610b5d565b9350505050610191565b604081511115610b3857808060200190516020811015610a7f57600080fd5b8101908080516040519392919084640100000000821115610a9f57600080fd5b908301906020820185811115610ab457600080fd5b8251640100000000811182820188101715610ace57600080fd5b82525081516020918201929091019080838360005b83811015610afb578181015183820152602001610ae3565b50505050905090810190601f168015610b285780820380516001836020036101000a031916815260200191505b5060405250505092505050610191565b50506040805160208101909152600081529392505050565b60606108f3826006610c85565b604080516020808252818301909252606091600091906020820181803683370190505090506000805b6020811015610be7576000858260208110610b9d57fe5b1a60f81b90506001600160f81b0319811615610bde5780848481518110610bc057fe5b60200101906001600160f81b031916908160001a9053506001909201915b50600101610b86565b5060008167ffffffffffffffff81118015610c0157600080fd5b506040519080825280601f01601f191660200182016040528015610c2c576020820181803683370190505b50905060005b82811015610c7c57838181518110610c4657fe5b602001015160f81c60f81b828281518110610c5d57fe5b60200101906001600160f81b031916908160001a905350600101610c32565b50949350505050565b606060028206158015610c985750600082115b8015610ca5575060288211155b610cf6576040805162461bcd60e51b815260206004820152601e60248201527f41646472657373537472696e675574696c3a20494e56414c49445f4c454e0000604482015290519081900360640190fd5b60008267ffffffffffffffff81118015610d0f57600080fd5b506040519080825280601f01601f191660200182016040528015610d3a576020820181803683370190505b5090506001600160a01b03841660005b60028504811015610dde57600860138290030282901c600f600482901c1660f082168203610d7782610de8565b868560020281518110610d8657fe5b60200101906001600160f81b031916908160001a905350610da681610de8565b868560020260010181518110610db857fe5b60200101906001600160f81b031916908160001a9053505060019092019150610d4a9050565b5090949350505050565b6000600a8260ff161015610e0357506030810160f81b6108f6565b506037810160f81b6108f6565b80516108f681611329565b8051600281900b81146108f657600080fd5b80516fffffffffffffffffffffffffffffffff811681146108f657600080fd5b805161ffff811681146108f657600080fd5b805162ffffff811681146108f657600080fd5b805160ff811681146108f657600080fd5b600060208284031215610e94578081fd5b8151610e9f81611329565b9392505050565b600080600060608486031215610eba578182fd5b8335610ec581611329565b92506020840135610ed581611329565b929592945050506040919091013590565b60008060408385031215610ef8578182fd5b8235610f0381611329565b946020939093013593505050565b600060208284031215610f22578081fd5b610e9f82610e1b565b600060208284031215610f3c578081fd5b815167ffffffffffffffff80821115610f53578283fd5b818401915084601f830112610f66578283fd5b815181811115610f7257fe5b604051601f8201601f191681016020018381118282101715610f9057fe5b604052818152838201602001871015610fa7578485fd5b610fb88260208301602087016112f9565b9695505050505050565b600080600080600080600060e0888a031215610fdc578283fd5b8751610fe781611329565b9650610ff560208901610e1b565b955061100360408901610e4d565b945061101160608901610e4d565b935061101f60808901610e4d565b925061102d60a08901610e72565b915060c08801518015158114611041578182fd5b8091505092959891949750929550565b600060208284031215611062578081fd5b610e9f82610e72565b6000806000806000806000806000806000806101808d8f03121561108d578485fd5b8c516bffffffffffffffffffffffff811681146110a8578586fd5b9b506110b660208e01610e10565b9a506110c460408e01610e10565b99506110d260608e01610e10565b98506110e060808e01610e5f565b97506110ee60a08e01610e1b565b96506110fc60c08e01610e1b565b955061110a60e08e01610e2d565b94506101008d015193506101208d015192506111296101408e01610e2d565b91506111386101608e01610e2d565b90509295989b509295989b509295989b565b6001600160a01b03169052565b15159052565b60020b9052565b6000815180845261117c8160208601602086016112f9565b601f01601f19169290920160200192915050565b62ffffff169052565b60ff169052565b6001600160a01b0391909116815260200190565b901515815260200190565b90815260200190565b600060208252610e9f6020830184611164565b6000602082528251602083015260208301516111fa604084018261114a565b50604083015161120d606084018261114a565b5060608301516101c080608085015261122a6101e0850183611164565b91506080850151601f198584030160a08601526112478382611164565b92505060a085015161125c60c0860182611199565b5060c085015161126f60e0860182611199565b5060e085015161010061128481870183611157565b86015190506101206112988682018361115d565b86015190506101406112ac8682018361115d565b86015190506101606112c08682018361115d565b86015190506101806112d48682018361115d565b86015190506101a06112e886820183611190565b8601519050610dde8583018261114a565b60005b838110156113145781810151838201526020016112fc565b83811115611323576000848401525b50505050565b6001600160a01b038116811461133e57600080fd5b5056fea164736f6c6343000706000a",
  "linkReferences": {
    "contracts/libraries/NFTDescriptor.sol": {
      "NFTDescriptor": [
        {
          "length": 20,
          "start": 1411
        }
      ]
    }
  },
  "deployedLinkReferences": {
    "contracts/libraries/NFTDescriptor.sol": {
      "NFTDescriptor": [
        {
          "length": 20,
          "start": 1218
        }
      ]
    }
  }
}