{
  "_format": "hh-sol-artifact-1",
  "contractName": "Quoter",
  "sourceName": "contracts/lens/Quoter.sol",
  "abi": [
    {
      "inputs": [
        {
          "internalType": "address",
          "name": "_factory",
          "type": "address"
        },
        {
          "internalType": "address",
          "name": "_WETH9",
          "type": "address"
        }
      ],
      "stateMutability": "nonpayable",
      "type": "constructor"
    },
    {
      "inputs": [],
      "name": "WETH9",
      "outputs": [
        {
          "internalType": "address",
          "name": "",
          "type": "address"
        }
      ],
      "stateMutability": "view",
      "type": "function"
    },
    {
      "inputs": [],
      "name": "factory",
      "outputs": [
        {
          "internalType": "address",
          "name": "",
          "type": "address"
        }
      ],
      "stateMutability": "view",
      "type": "function"
    },
    {
      "inputs": [
        {
          "internalType": "int256",
          "name": "amount0Delta",
          "type": "int256"
        },
        {
          "internalType": "int256",
          "name": "amount1Delta",
          "type": "int256"
        },
        {
          "internalType": "bytes",
          "name": "path",
          "type": "bytes"
        }
      ],
      "name": "flareSwapSwapCallback",
      "outputs": [],
      "stateMutability": "view",
      "type": "function"
    },
    {
      "inputs": [
        {
          "internalType": "bytes",
          "name": "path",
          "type": "bytes"
        },
        {
          "internalType": "uint256",
          "name": "amountIn",
          "type": "uint256"
        }
      ],
      "name": "quoteExactInput",
      "outputs": [
        {
          "internalType": "uint256",
          "name": "amountOut",
          "type": "uint256"
        }
      ],
      "stateMutability": "nonpayable",
      "type": "function"
    },
    {
      "inputs": [
        {
          "internalType": "address",
          "name": "tokenIn",
          "type": "address"
        },
        {
          "internalType": "address",
          "name": "tokenOut",
          "type": "address"
        },
        {
          "internalType": "uint24",
          "name": "fee",
          "type": "uint24"
        },
        {
          "internalType": "uint256",
          "name": "amountIn",
          "type": "uint256"
        },
        {
          "internalType": "uint160",
          "name": "sqrtPriceLimitX96",
          "type": "uint160"
        }
      ],
      "name": "quoteExactInputSingle",
      "outputs": [
        {
          "internalType": "uint256",
          "name": "amountOut",
          "type": "uint256"
        }
      ],
      "stateMutability": "nonpayable",
      "type": "function"
    },
    {
      "inputs": [
        {
          "internalType": "bytes",
          "name": "path",
          "type": "bytes"
        },
        {
          "internalType": "uint256",
          "name": "amountOut",
          "type": "uint256"
        }
      ],
      "name": "quoteExactOutput",
      "outputs": [
        {
          "internalType": "uint256",
          "name": "amountIn",
          "type": "uint256"
        }
      ],
      "stateMutability": "nonpayable",
      "type": "function"
    },
    {
      "inputs": [
        {
          "internalType": "address",
          "name": "tokenIn",
          "type": "address"
        },
        {
          "internalType": "address",
          "name": "tokenOut",
          "type": "address"
        },
        {
          "internalType": "uint24",
          "name": "fee",
          "type": "uint24"
        },
        {
          "internalType": "uint256",
          "name": "amountOut",
          "type": "uint256"
        },
        {
          "internalType": "uint160",
          "name": "sqrtPriceLimitX96",
          "type": "uint160"
        }
      ],
      "name": "quoteExactOutputSingle",
      "outputs": [
        {
          "internalType": "uint256",
          "name": "amountIn",
          "type": "uint256"
        }
      ],
      "stateMutability": "nonpayable",
      "type": "function"
    }
  ],
  "bytecode": "0x60c060405234801561001057600080fd5b50604051610fd6380380610fd683398101604081905261002f91610069565b6001600160601b0319606092831b8116608052911b1660a05261009b565b80516001600160a01b038116811461006457600080fd5b919050565b6000806040838503121561007b578182fd5b6100848361004d565b91506100926020840161004d565b90509250929050565b60805160601c60a05160601c610f086100ce600039806103c752508061014752806103eb52806106025250610f086000f3fe608060405234801561001057600080fd5b506004361061007d5760003560e01c80634aa4a4fc1161005b5780634aa4a4fc146100d3578063c45a0155146100e8578063cdca1753146100f0578063f7729d43146101035761007d565b80631902c6d0146100825780632f80bb1d1461009757806330d07f21146100c0575b600080fd5b610095610090366004610c6b565b610116565b005b6100aa6100a5366004610c05565b6101ed565b6040516100b79190610e64565b60405180910390f35b6100aa6100ce366004610b97565b610252565b6100db6103c5565b6040516100b79190610dba565b6100db6103e9565b6100aa6100fe366004610c05565b61040d565b6100aa610111366004610b97565b61045b565b60008313806101255750600082135b61012e57600080fd5b600080600061013c84610595565b92509250925061016e7f00000000000000000000000000000000000000000000000000000000000000008484846105c6565b50600080600080891361019a57856001600160a01b0316856001600160a01b031610888a6000036101b5565b846001600160a01b0316866001600160a01b03161089896000035b92509250925082156101cc57604051818152602081fd5b600054156101e25760005481146101e257600080fd5b604051828152602081fd5b60005b60006101fb846105dc565b9050600080600061020b87610595565b92509250925061021f828483896000610252565b9550831561023757610230876105e4565b9650610243565b8594505050505061024c565b505050506101f0565b92915050565b60006001600160a01b03808616878216109083166102705760008490555b61027b8787876105fb565b6001600160a01b031663128acb08308361029488610639565b6000036001600160a01b038816156102ac57876102d2565b856102cb5773fffd8963efd1fc6a506488495d951d5263988d256102d2565b6401000276a45b8b8b8e6040516020016102e793929190610d67565b6040516020818303038152906040526040518663ffffffff1660e01b8152600401610316959493929190610dce565b6040805180830381600087803b15801561032f57600080fd5b505af192505050801561035f575060408051601f3d908101601f1916820190925261035c91810190610c48565b60015b6103b8573d80801561038d576040519150601f19603f3d011682016040523d82523d6000602084013e610392565b606091505b506001600160a01b0384166103a657600080555b6103af8161064f565b925050506103bc565b5050505b95945050505050565b7f000000000000000000000000000000000000000000000000000000000000000081565b7f000000000000000000000000000000000000000000000000000000000000000081565b60005b600061041b846105dc565b9050600080600061042b87610595565b92509250925061043f83838389600061045b565b9550831561023757610450876105e4565b965050505050610410565b60006001600160a01b03808616908716106104778787876105fb565b6001600160a01b031663128acb08308361049088610639565b6001600160a01b038816156104a557876104cb565b856104c45773fffd8963efd1fc6a506488495d951d5263988d256104cb565b6401000276a45b8c8b8d6040516020016104e093929190610d67565b6040516020818303038152906040526040518663ffffffff1660e01b815260040161050f959493929190610dce565b6040805180830381600087803b15801561052857600080fd5b505af1925050508015610558575060408051601f3d908101601f1916820190925261055591810190610c48565b60015b6103b8573d808015610586576040519150601f19603f3d011682016040523d82523d6000602084013e61058b565b606091505b506103af8161064f565b600080806105a384826106cc565b92506105b0846014610798565b90506105bd8460176106cc565b91509193909250565b60006103bc856105d7868686610854565b6108aa565b516042111590565b805160609061024c908390601790601619016108cd565b60006106317f000000000000000000000000000000000000000000000000000000000000000061062c868686610854565b610a2a565b949350505050565b6000600160ff1b821061064b57600080fd5b5090565b600081516020146106b8576044825110156106855760405162461bcd60e51b815260040161067c90610e2d565b60405180910390fd5b6004820191508180602001905181019061069f9190610cb9565b60405162461bcd60e51b815260040161067c9190610e13565b8180602001905181019061024c9190610d23565b600081826014011015610726576040805162461bcd60e51b815260206004820152601260248201527f746f416464726573735f6f766572666c6f770000000000000000000000000000604482015290519081900360640190fd5b816014018351101561077f576040805162461bcd60e51b815260206004820152601560248201527f746f416464726573735f6f75744f66426f756e64730000000000000000000000604482015290519081900360640190fd5b5001602001516c01000000000000000000000000900490565b6000818260030110156107f2576040805162461bcd60e51b815260206004820152601160248201527f746f55696e7432345f6f766572666c6f77000000000000000000000000000000604482015290519081900360640190fd5b816003018351101561084b576040805162461bcd60e51b815260206004820152601460248201527f746f55696e7432345f6f75744f66426f756e6473000000000000000000000000604482015290519081900360640190fd5b50016003015190565b61085c610b26565b826001600160a01b0316846001600160a01b0316111561087a579192915b50604080516060810182526001600160a01b03948516815292909316602083015262ffffff169181019190915290565b60006108b68383610a2a565b9050336001600160a01b0382161461024c57600080fd5b60608182601f011015610918576040805162461bcd60e51b815260206004820152600e60248201526d736c6963655f6f766572666c6f7760901b604482015290519081900360640190fd5b828284011015610960576040805162461bcd60e51b815260206004820152600e60248201526d736c6963655f6f766572666c6f7760901b604482015290519081900360640190fd5b818301845110156109b8576040805162461bcd60e51b815260206004820152601160248201527f736c6963655f6f75744f66426f756e6473000000000000000000000000000000604482015290519081900360640190fd5b6060821580156109d75760405191506000825260208201604052610a21565b6040519150601f8416801560200281840101858101878315602002848b0101015b81831015610a105780518352602092830192016109f8565b5050858452601f01601f1916604052505b50949350505050565b600081602001516001600160a01b031682600001516001600160a01b031610610a5257600080fd5b50805160208083015160409384015184516001600160a01b0394851681850152939091168385015262ffffff166060808401919091528351808403820181526080840185528051908301207fff0000000000000000000000000000000000000000000000000000000000000060a085015294901b6bffffffffffffffffffffffff191660a183015260b58201939093527fa20e9909e6fac267512e30f1441a8a3ecc6e7b2c2584042a2baecdfc9bdbcaaf60d5808301919091528251808303909101815260f5909101909152805191012090565b604080516060810182526000808252602082018190529181019190915290565b600082601f830112610b56578081fd5b8135610b69610b6482610e91565b610e6d565b818152846020838601011115610b7d578283fd5b816020850160208301379081016020019190915292915050565b600080600080600060a08688031215610bae578081fd5b8535610bb981610ee3565b94506020860135610bc981610ee3565b9350604086013562ffffff81168114610be0578182fd5b9250606086013591506080860135610bf781610ee3565b809150509295509295909350565b60008060408385031215610c17578182fd5b823567ffffffffffffffff811115610c2d578283fd5b610c3985828601610b46565b95602094909401359450505050565b60008060408385031215610c5a578182fd5b505080516020909101519092909150565b600080600060608486031215610c7f578283fd5b8335925060208401359150604084013567ffffffffffffffff811115610ca3578182fd5b610caf86828701610b46565b9150509250925092565b600060208284031215610cca578081fd5b815167ffffffffffffffff811115610ce0578182fd5b8201601f81018413610cf0578182fd5b8051610cfe610b6482610e91565b818152856020838501011115610d12578384fd5b6103bc826020830160208601610eb3565b600060208284031215610d34578081fd5b5051919050565b60008151808452610d53816020860160208601610eb3565b601f01601f19169290920160200192915050565b606093841b6bffffffffffffffffffffffff19908116825260e89390931b7fffffff0000000000000000000000000000000000000000000000000000000000166014820152921b166017820152602b0190565b6001600160a01b0391909116815260200190565b60006001600160a01b038088168352861515602084015285604084015280851660608401525060a06080830152610e0860a0830184610d3b565b979650505050505050565b600060208252610e266020830184610d3b565b9392505050565b60208082526010908201527f556e6578706563746564206572726f7200000000000000000000000000000000604082015260600190565b90815260200190565b60405181810167ffffffffffffffff81118282101715610e8957fe5b604052919050565b600067ffffffffffffffff821115610ea557fe5b50601f01601f191660200190565b60005b83811015610ece578181015183820152602001610eb6565b83811115610edd576000848401525b50505050565b6001600160a01b0381168114610ef857600080fd5b5056fea164736f6c6343000706000a",
  "linkReferences": {},
  "deployedLinkReferences": {}
}