{
  "_format": "hh-sol-artifact-1",
  "contractName": "SwapRouter",
  "sourceName": "contracts/SwapRouter.sol",
  "abi": [
    {
      "inputs": [
        {
          "internalType": "address",
          "name": "_factory",
          "type": "address"
        },
        {
          "internalType": "address",
          "name": "_WETH9",
          "type": "address"
        }
      ],
      "stateMutability": "nonpayable",
      "type": "constructor"
    },
    {
      "inputs": [],
      "name": "WETH9",
      "outputs": [
        {
          "internalType": "address",
          "name": "",
          "type": "address"
        }
      ],
      "stateMutability": "view",
      "type": "function"
    },
    {
      "inputs": [
        {
          "components": [
            {
              "internalType": "bytes",
              "name": "path",
              "type": "bytes"
            },
            {
              "internalType": "address",
              "name": "recipient",
              "type": "address"
            },
            {
              "internalType": "uint256",
              "name": "deadline",
              "type": "uint256"
            },
            {
              "internalType": "uint256",
              "name": "amountIn",
              "type": "uint256"
            },
            {
              "internalType": "uint256",
              "name": "amountOutMinimum",
              "type": "uint256"
            }
          ],
          "internalType": "struct ISwapRouter.ExactInputParams",
          "name": "params",
          "type": "tuple"
        }
      ],
      "name": "exactInput",
      "outputs": [
        {
          "internalType": "uint256",
          "name": "amountOut",
          "type": "uint256"
        }
      ],
      "stateMutability": "payable",
      "type": "function"
    },
    {
      "inputs": [
        {
          "components": [
            {
              "internalType": "address",
              "name": "tokenIn",
              "type": "address"
            },
            {
              "internalType": "address",
              "name": "tokenOut",
              "type": "address"
            },
            {
              "internalType": "uint24",
              "name": "fee",
              "type": "uint24"
            },
            {
              "internalType": "address",
              "name": "recipient",
              "type": "address"
            },
            {
              "internalType": "uint256",
              "name": "deadline",
              "type": "uint256"
            },
            {
              "internalType": "uint256",
              "name": "amountIn",
              "type": "uint256"
            },
            {
              "internalType": "uint256",
              "name": "amountOutMinimum",
              "type": "uint256"
            },
            {
              "internalType": "uint160",
              "name": "sqrtPriceLimitX96",
              "type": "uint160"
            }
          ],
          "internalType": "struct ISwapRouter.ExactInputSingleParams",
          "name": "params",
          "type": "tuple"
        }
      ],
      "name": "exactInputSingle",
      "outputs": [
        {
          "internalType": "uint256",
          "name": "amountOut",
          "type": "uint256"
        }
      ],
      "stateMutability": "payable",
      "type": "function"
    },
    {
      "inputs": [
        {
          "components": [
            {
              "internalType": "bytes",
              "name": "path",
              "type": "bytes"
            },
            {
              "internalType": "address",
              "name": "recipient",
              "type": "address"
            },
            {
              "internalType": "uint256",
              "name": "deadline",
              "type": "uint256"
            },
            {
              "internalType": "uint256",
              "name": "amountOut",
              "type": "uint256"
            },
            {
              "internalType": "uint256",
              "name": "amountInMaximum",
              "type": "uint256"
            }
          ],
          "internalType": "struct ISwapRouter.ExactOutputParams",
          "name": "params",
          "type": "tuple"
        }
      ],
      "name": "exactOutput",
      "outputs": [
        {
          "internalType": "uint256",
          "name": "amountIn",
          "type": "uint256"
        }
      ],
      "stateMutability": "payable",
      "type": "function"
    },
    {
      "inputs": [
        {
          "components": [
            {
              "internalType": "address",
              "name": "tokenIn",
              "type": "address"
            },
            {
              "internalType": "address",
              "name": "tokenOut",
              "type": "address"
            },
            {
              "internalType": "uint24",
              "name": "fee",
              "type": "uint24"
            },
            {
              "internalType": "address",
              "name": "recipient",
              "type": "address"
            },
            {
              "internalType": "uint256",
              "name": "deadline",
              "type": "uint256"
            },
            {
              "internalType": "uint256",
              "name": "amountOut",
              "type": "uint256"
            },
            {
              "internalType": "uint256",
              "name": "amountInMaximum",
              "type": "uint256"
            },
            {
              "internalType": "uint160",
              "name": "sqrtPriceLimitX96",
              "type": "uint160"
            }
          ],
          "internalType": "struct ISwapRouter.ExactOutputSingleParams",
          "name": "params",
          "type": "tuple"
        }
      ],
      "name": "exactOutputSingle",
      "outputs": [
        {
          "internalType": "uint256",
          "name": "amountIn",
          "type": "uint256"
        }
      ],
      "stateMutability": "payable",
      "type": "function"
    },
    {
      "inputs": [],
      "name": "factory",
      "outputs": [
        {
          "internalType": "address",
          "name": "",
          "type": "address"
        }
      ],
      "stateMutability": "view",
      "type": "function"
    },
    {
      "inputs": [
        {
          "internalType": "int256",
          "name": "amount0Delta",
          "type": "int256"
        },
        {
          "internalType": "int256",
          "name": "amount1Delta",
          "type": "int256"
        },
        {
          "internalType": "bytes",
          "name": "_data",
          "type": "bytes"
        }
      ],
      "name": "flareSwapSwapCallback",
      "outputs": [],
      "stateMutability": "nonpayable",
      "type": "function"
    },
    {
      "inputs": [
        {
          "internalType": "bytes[]",
          "name": "data",
          "type": "bytes[]"
        }
      ],
      "name": "multicall",
      "outputs": [
        {
          "internalType": "bytes[]",
          "name": "results",
          "type": "bytes[]"
        }
      ],
      "stateMutability": "payable",
      "type": "function"
    },
    {
      "inputs": [],
      "name": "refundETH",
      "outputs": [],
      "stateMutability": "payable",
      "type": "function"
    },
    {
      "inputs": [
        {
          "internalType": "address",
          "name": "token",
          "type": "address"
        },
        {
          "internalType": "uint256",
          "name": "value",
          "type": "uint256"
        },
        {
          "internalType": "uint256",
          "name": "deadline",
          "type": "uint256"
        },
        {
          "internalType": "uint8",
          "name": "v",
          "type": "uint8"
        },
        {
          "internalType": "bytes32",
          "name": "r",
          "type": "bytes32"
        },
        {
          "internalType": "bytes32",
          "name": "s",
          "type": "bytes32"
        }
      ],
      "name": "selfPermit",
      "outputs": [],
      "stateMutability": "payable",
      "type": "function"
    },
    {
      "inputs": [
        {
          "internalType": "address",
          "name": "token",
          "type": "address"
        },
        {
          "internalType": "uint256",
          "name": "nonce",
          "type": "uint256"
        },
        {
          "internalType": "uint256",
          "name": "expiry",
          "type": "uint256"
        },
        {
          "internalType": "uint8",
          "name": "v",
          "type": "uint8"
        },
        {
          "internalType": "bytes32",
          "name": "r",
          "type": "bytes32"
        },
        {
          "internalType": "bytes32",
          "name": "s",
          "type": "bytes32"
        }
      ],
      "name": "selfPermitAllowed",
      "outputs": [],
      "stateMutability": "payable",
      "type": "function"
    },
    {
      "inputs": [
        {
          "internalType": "address",
          "name": "token",
          "type": "address"
        },
        {
          "internalType": "uint256",
          "name": "nonce",
          "type": "uint256"
        },
        {
          "internalType": "uint256",
          "name": "expiry",
          "type": "uint256"
        },
        {
          "internalType": "uint8",
          "name": "v",
          "type": "uint8"
        },
        {
          "internalType": "bytes32",
          "name": "r",
          "type": "bytes32"
        },
        {
          "internalType": "bytes32",
          "name": "s",
          "type": "bytes32"
        }
      ],
      "name": "selfPermitAllowedIfNecessary",
      "outputs": [],
      "stateMutability": "payable",
      "type": "function"
    },
    {
      "inputs": [
        {
          "internalType": "address",
          "name": "token",
          "type": "address"
        },
        {
          "internalType": "uint256",
          "name": "value",
          "type": "uint256"
        },
        {
          "internalType": "uint256",
          "name": "deadline",
          "type": "uint256"
        },
        {
          "internalType": "uint8",
          "name": "v",
          "type": "uint8"
        },
        {
          "internalType": "bytes32",
          "name": "r",
          "type": "bytes32"
        },
        {
          "internalType": "bytes32",
          "name": "s",
          "type": "bytes32"
        }
      ],
      "name": "selfPermitIfNecessary",
      "outputs": [],
      "stateMutability": "payable",
      "type": "function"
    },
    {
      "inputs": [
        {
          "internalType": "address",
          "name": "token",
          "type": "address"
        },
        {
          "internalType": "uint256",
          "name": "amountMinimum",
          "type": "uint256"
        },
        {
          "internalType": "address",
          "name": "recipient",
          "type": "address"
        }
      ],
      "name": "sweepToken",
      "outputs": [],
      "stateMutability": "payable",
      "type": "function"
    },
    {
      "inputs": [
        {
          "internalType": "address",
          "name": "token",
          "type": "address"
        },
        {
          "internalType": "uint256",
          "name": "amountMinimum",
          "type": "uint256"
        },
        {
          "internalType": "address",
          "name": "recipient",
          "type": "address"
        },
        {
          "internalType": "uint256",
          "name": "feeBips",
          "type": "uint256"
        },
        {
          "internalType": "address",
          "name": "feeRecipient",
          "type": "address"
        }
      ],
      "name": "sweepTokenWithFee",
      "outputs": [],
      "stateMutability": "payable",
      "type": "function"
    },
    {
      "inputs": [
        {
          "internalType": "uint256",
          "name": "amountMinimum",
          "type": "uint256"
        },
        {
          "internalType": "address",
          "name": "recipient",
          "type": "address"
        }
      ],
      "name": "unwrapWETH9",
      "outputs": [],
      "stateMutability": "payable",
      "type": "function"
    },
    {
      "inputs": [
        {
          "internalType": "uint256",
          "name": "amountMinimum",
          "type": "uint256"
        },
        {
          "internalType": "address",
          "name": "recipient",
          "type": "address"
        },
        {
          "internalType": "uint256",
          "name": "feeBips",
          "type": "uint256"
        },
        {
          "internalType": "address",
          "name": "feeRecipient",
          "type": "address"
        }
      ],
      "name": "unwrapWETH9WithFee",
      "outputs": [],
      "stateMutability": "payable",
      "type": "function"
    },
    {
      "stateMutability": "payable",
      "type": "receive"
    }
  ],
  "bytecode": "0x60c06040526000196000553480156200001757600080fd5b5060405162002871380380620028718339810160408190526200003a9162000076565b6001600160601b0319606092831b8116608052911b1660a052620000ad565b80516001600160a01b03811681146200007157600080fd5b919050565b6000806040838503121562000089578182fd5b620000948362000059565b9150620000a46020840162000059565b90509250929050565b60805160601c60a05160601c612768620001096000398061012252806105fe52806106f4528061078152806107c152806108b752806112fd528061134352806113b752508061036b5280610cf05280611dde52506127686000f3fe6080604052600436106101125760003560e01c8063ac9650d8116100a5578063db3e219811610074578063e0e189a011610059578063e0e189a0146102db578063f28c0498146102ee578063f3995c671461030157610196565b8063db3e2198146102b5578063df2ab5bb146102c857610196565b8063ac9650d81461025a578063c04b8d591461027a578063c2e3140a1461028d578063c45a0155146102a057610196565b806349404b7c116100e157806349404b7c146101ff5780634aa4a4fc146102125780639b2c0a3714610234578063a4a78f0c1461024757610196565b806312210e8a1461019b5780631902c6d0146101a3578063414bf389146101c35780634659a494146101ec57610196565b3661019657336001600160a01b037f00000000000000000000000000000000000000000000000000000000000000001614610194576040805162461bcd60e51b815260206004820152600960248201527f4e6f742057455448390000000000000000000000000000000000000000000000604482015290519081900360640190fd5b005b600080fd5b610194610314565b3480156101af57600080fd5b506101946101be366004612169565b610326565b6101d66101d13660046122f9565b610445565b6040516101e3919061267c565b60405180910390f35b6101946101fa366004612077565b61056c565b61019461020d366004612400565b6105fa565b34801561021e57600080fd5b5061022761077f565b6040516101e39190612507565b61019461024236600461242f565b6107a3565b610194610255366004612077565b61097a565b61026d6102683660046120d7565b610a0b565b6040516101e39190612560565b6101d661028836600461224e565b610b4b565b61019461029b366004612077565b610c5f565b3480156102ac57600080fd5b50610227610cee565b6101d66102c33660046122f9565b610d12565b6101946102d6366004611fd8565b610e39565b6101946102e9366004612019565b610f22565b6101d66102fc366004612315565b611054565b61019461030f366004612077565b61114a565b47156103245761032433476111bc565b565b60008413806103355750600083135b61033e57600080fd5b600061034c8284018461234d565b9050600080600061036084600001516112ab565b9250925092506103927f00000000000000000000000000000000000000000000000000000000000000008484846112dc565b5060008060008a136103b957846001600160a01b0316846001600160a01b031610896103d0565b836001600160a01b0316856001600160a01b0316108a5b9150915081156103ef576103ea85876020015133846112fb565b610439565b85516103fa9061148b565b1561041f57855161040a90611497565b865261041981336000896114b4565b50610439565b8060008190555083945061043985876020015133846112fb565b50505050505050505050565b600081608001358061045561162f565b111561049e576040805162461bcd60e51b8152602060048201526013602482015272151c985b9cd858dd1a5bdb881d1bdbc81bdb19606a1b604482015290519081900360640190fd5b61053760a08401356104b66080860160608701611fb5565b6104c7610100870160e08801611fb5565b60408051808201909152806104df60208a018a611fb5565b6104ef60608b0160408c016123dd565b6104ff60408c0160208d01611fb5565b604051602001610511939291906124a4565b6040516020818303038152906040528152602001336001600160a01b0316815250611633565b91508260c001358210156105665760405162461bcd60e51b815260040161055d9061260a565b60405180910390fd5b50919050565b604080516323f2ebc360e21b815233600482015230602482015260448101879052606481018690526001608482015260ff851660a482015260c4810184905260e4810183905290516001600160a01b03881691638fcbaf0c9161010480830192600092919082900301818387803b1580156105e657600080fd5b505af1158015610439573d6000803e3d6000fd5b60007f00000000000000000000000000000000000000000000000000000000000000006001600160a01b03166370a08231306040518263ffffffff1660e01b815260040180826001600160a01b0316815260200191505060206040518083038186803b15801561066957600080fd5b505afa15801561067d573d6000803e3d6000fd5b505050506040513d602081101561069357600080fd5b50519050828110156106ec576040805162461bcd60e51b815260206004820152601260248201527f496e73756666696369656e742057455448390000000000000000000000000000604482015290519081900360640190fd5b801561077a577f00000000000000000000000000000000000000000000000000000000000000006001600160a01b0316632e1a7d4d826040518263ffffffff1660e01b815260040180828152602001915050600060405180830381600087803b15801561075857600080fd5b505af115801561076c573d6000803e3d6000fd5b5050505061077a82826111bc565b505050565b7f000000000000000000000000000000000000000000000000000000000000000081565b6000821180156107b4575060648211155b6107bd57600080fd5b60007f00000000000000000000000000000000000000000000000000000000000000006001600160a01b03166370a08231306040518263ffffffff1660e01b815260040180826001600160a01b0316815260200191505060206040518083038186803b15801561082c57600080fd5b505afa158015610840573d6000803e3d6000fd5b505050506040513d602081101561085657600080fd5b50519050848110156108af576040805162461bcd60e51b815260206004820152601260248201527f496e73756666696369656e742057455448390000000000000000000000000000604482015290519081900360640190fd5b8015610973577f00000000000000000000000000000000000000000000000000000000000000006001600160a01b0316632e1a7d4d826040518263ffffffff1660e01b815260040180828152602001915050600060405180830381600087803b15801561091b57600080fd5b505af115801561092f573d6000803e3d6000fd5b50505050600061271061094b858461178590919063ffffffff16565b8161095257fe5b04905080156109655761096583826111bc565b610971858284036111bc565b505b5050505050565b60408051636eb1769f60e11b81523360048201523060248201529051600019916001600160a01b0389169163dd62ed3e91604480820192602092909190829003018186803b1580156109cb57600080fd5b505afa1580156109df573d6000803e3d6000fd5b505050506040513d60208110156109f557600080fd5b505110156109715761097186868686868661056c565b60608167ffffffffffffffff81118015610a2457600080fd5b50604051908082528060200260200182016040528015610a5857816020015b6060815260200190600190039081610a435790505b50905060005b82811015610b445760008030868685818110610a7657fe5b9050602002810190610a889190612685565b604051610a969291906124f7565b600060405180830381855af49150503d8060008114610ad1576040519150601f19603f3d011682016040523d82523d6000602084013e610ad6565b606091505b509150915081610b2257604481511015610aef57600080fd5b60048101905080806020019051810190610b0991906121e4565b60405162461bcd60e51b815260040161055d91906125c0565b80848481518110610b2f57fe5b60209081029190910101525050600101610a5e565b5092915050565b6000816040015180610b5b61162f565b1115610ba4576040805162461bcd60e51b8152602060048201526013602482015272151c985b9cd858dd1a5bdb881d1bdbc81bdb19606a1b604482015290519081900360640190fd5b335b6000610bb5856000015161148b565b9050610c01856060015182610bce578660200151610bd0565b305b60006040518060400160405280610bea8b600001516117a9565b8152602001876001600160a01b0316815250611633565b60608601528015610c21578451309250610c1a90611497565b8552610c2e565b8460600151935050610c34565b50610ba6565b8360800151831015610c585760405162461bcd60e51b815260040161055d9061260a565b5050919050565b60408051636eb1769f60e11b8152336004820152306024820152905186916001600160a01b0389169163dd62ed3e91604480820192602092909190829003018186803b158015610cae57600080fd5b505afa158015610cc2573d6000803e3d6000fd5b505050506040513d6020811015610cd857600080fd5b505110156109715761097186868686868661114a565b7f000000000000000000000000000000000000000000000000000000000000000081565b6000816080013580610d2261162f565b1115610d6b576040805162461bcd60e51b8152602060048201526013602482015272151c985b9cd858dd1a5bdb881d1bdbc81bdb19606a1b604482015290519081900360640190fd5b610e0760a0840135610d836080860160608701611fb5565b610d94610100870160e08801611fb5565b6040518060400160405280886020016020810190610db29190611fb5565b610dc260608b0160408c016123dd565b610dcf60208c018c611fb5565b604051602001610de1939291906124a4565b6040516020818303038152906040528152602001336001600160a01b03168152506114b4565b91508260c00135821115610e2d5760405162461bcd60e51b815260040161055d906125d3565b50600019600055919050565b6000836001600160a01b03166370a08231306040518263ffffffff1660e01b815260040180826001600160a01b0316815260200191505060206040518083038186803b158015610e8857600080fd5b505afa158015610e9c573d6000803e3d6000fd5b505050506040513d6020811015610eb257600080fd5b5051905082811015610f0b576040805162461bcd60e51b815260206004820152601260248201527f496e73756666696369656e7420746f6b656e0000000000000000000000000000604482015290519081900360640190fd5b8015610f1c57610f1c8483836117b8565b50505050565b600082118015610f33575060648211155b610f3c57600080fd5b6000856001600160a01b03166370a08231306040518263ffffffff1660e01b815260040180826001600160a01b0316815260200191505060206040518083038186803b158015610f8b57600080fd5b505afa158015610f9f573d6000803e3d6000fd5b505050506040513d6020811015610fb557600080fd5b505190508481101561100e576040805162461bcd60e51b815260206004820152601260248201527f496e73756666696369656e7420746f6b656e0000000000000000000000000000604482015290519081900360640190fd5b80156109715760006127106110238386611785565b8161102a57fe5b049050801561103e5761103e8784836117b8565b61104b87868385036117b8565b50505050505050565b600081604001358061106461162f565b11156110ad576040805162461bcd60e51b8152602060048201526013602482015272151c985b9cd858dd1a5bdb881d1bdbc81bdb19606a1b604482015290519081900360640190fd5b61112060608401356110c56040860160208701611fb5565b60408051808201909152600090806110dd8980612685565b8080601f016020809104026020016040519081016040528093929190818152602001838380828437600092019190915250505090825250336020909101526114b4565b5060005491508260800135821115610e2d5760405162461bcd60e51b815260040161055d906125d3565b6040805163d505accf60e01b8152336004820152306024820152604481018790526064810186905260ff8516608482015260a4810184905260c4810183905290516001600160a01b0388169163d505accf9160e480830192600092919082900301818387803b1580156105e657600080fd5b604080516000808252602082019092526001600160a01b0384169083906040518082805190602001908083835b602083106112085780518252601f1990920191602091820191016111e9565b6001836020036101000a03801982511681845116808217855250505050505090500191505060006040518083038185875af1925050503d806000811461126a576040519150601f19603f3d011682016040523d82523d6000602084013e61126f565b606091505b505090508061077a576040805162461bcd60e51b815260206004820152600360248201526253544560e81b604482015290519081900360640190fd5b600080806112b98482611914565b92506112c68460146119e0565b90506112d3846017611914565b91509193909250565b60006112f2856112ed868686611a9c565b611af2565b95945050505050565b7f00000000000000000000000000000000000000000000000000000000000000006001600160a01b0316846001600160a01b031614801561133c5750804710155b1561145e577f00000000000000000000000000000000000000000000000000000000000000006001600160a01b031663d0e30db0826040518263ffffffff1660e01b81526004016000604051808303818588803b15801561139c57600080fd5b505af11580156113b0573d6000803e3d6000fd5b50505050507f00000000000000000000000000000000000000000000000000000000000000006001600160a01b031663a9059cbb83836040518363ffffffff1660e01b815260040180836001600160a01b0316815260200182815260200192505050602060405180830381600087803b15801561142c57600080fd5b505af1158015611440573d6000803e3d6000fd5b505050506040513d602081101561145657600080fd5b50610f1c9050565b6001600160a01b03831630141561147f5761147a8483836117b8565b610f1c565b610f1c84848484611b15565b8051604211155b919050565b80516060906114ae90839060179060161901611c7a565b92915050565b60006001600160a01b0384166114c8573093505b60008060006114da85600001516112ab565b919450925090506001600160a01b03808416908316106000806114fe858786611dd7565b6001600160a01b031663128acb088b856115178f611e15565b6000036001600160a01b038e161561152f578d611555565b8761154e5773fffd8963efd1fc6a506488495d951d5263988d25611555565b6401000276a45b8d6040516020016115669190612641565b6040516020818303038152906040526040518663ffffffff1660e01b815260040161159595949392919061251b565b6040805180830381600087803b1580156115ae57600080fd5b505af11580156115c2573d6000803e3d6000fd5b505050506040513d601f19601f820116820180604052508101906115e69190612146565b915091506000836115fb578183600003611601565b82826000035b90985090506001600160a01b038a16611620578b811461162057600080fd5b50505050505050949350505050565b4290565b60006001600160a01b038416611647573093505b600080600061165985600001516112ab565b919450925090506001600160a01b038083169084161060008061167d868686611dd7565b6001600160a01b031663128acb088b856116968f611e15565b6001600160a01b038e16156116ab578d6116d1565b876116ca5773fffd8963efd1fc6a506488495d951d5263988d256116d1565b6401000276a45b8d6040516020016116e29190612641565b6040516020818303038152906040526040518663ffffffff1660e01b815260040161171195949392919061251b565b6040805180830381600087803b15801561172a57600080fd5b505af115801561173e573d6000803e3d6000fd5b505050506040513d601f19601f820116820180604052508101906117629190612146565b91509150826117715781611773565b805b6000039b9a5050505050505050505050565b60008215806117a05750508181028183828161179d57fe5b04145b6114ae57600080fd5b60606114ae826000602b611c7a565b604080516001600160a01b038481166024830152604480830185905283518084039091018152606490920183526020820180517bffffffffffffffffffffffffffffffffffffffffffffffffffffffff1663a9059cbb60e01b1781529251825160009485949389169392918291908083835b602083106118495780518252601f19909201916020918201910161182a565b6001836020036101000a0380198251168184511680821785525050505050509050019150506000604051808303816000865af19150503d80600081146118ab576040519150601f19603f3d011682016040523d82523d6000602084013e6118b0565b606091505b50915091508180156118de5750805115806118de57508080602001905160208110156118db57600080fd5b50515b610973576040805162461bcd60e51b815260206004820152600260248201526114d560f21b604482015290519081900360640190fd5b60008182601401101561196e576040805162461bcd60e51b815260206004820152601260248201527f746f416464726573735f6f766572666c6f770000000000000000000000000000604482015290519081900360640190fd5b81601401835110156119c7576040805162461bcd60e51b815260206004820152601560248201527f746f416464726573735f6f75744f66426f756e64730000000000000000000000604482015290519081900360640190fd5b5001602001516c01000000000000000000000000900490565b600081826003011015611a3a576040805162461bcd60e51b815260206004820152601160248201527f746f55696e7432345f6f766572666c6f77000000000000000000000000000000604482015290519081900360640190fd5b8160030183511015611a93576040805162461bcd60e51b815260206004820152601460248201527f746f55696e7432345f6f75744f66426f756e6473000000000000000000000000604482015290519081900360640190fd5b50016003015190565b611aa4611f27565b826001600160a01b0316846001600160a01b03161115611ac2579192915b50604080516060810182526001600160a01b03948516815292909316602083015262ffffff169181019190915290565b6000611afe8383611e2b565b9050336001600160a01b038216146114ae57600080fd5b604080516001600160a01b0385811660248301528481166044830152606480830185905283518084039091018152608490920183526020820180517bffffffffffffffffffffffffffffffffffffffffffffffffffffffff166323b872dd60e01b178152925182516000948594938a169392918291908083835b60208310611bae5780518252601f199092019160209182019101611b8f565b6001836020036101000a0380198251168184511680821785525050505050509050019150506000604051808303816000865af19150503d8060008114611c10576040519150601f19603f3d011682016040523d82523d6000602084013e611c15565b606091505b5091509150818015611c43575080511580611c435750808060200190516020811015611c4057600080fd5b50515b610971576040805162461bcd60e51b815260206004820152600360248201526229aa2360e91b604482015290519081900360640190fd5b60608182601f011015611cc5576040805162461bcd60e51b815260206004820152600e60248201526d736c6963655f6f766572666c6f7760901b604482015290519081900360640190fd5b828284011015611d0d576040805162461bcd60e51b815260206004820152600e60248201526d736c6963655f6f766572666c6f7760901b604482015290519081900360640190fd5b81830184511015611d65576040805162461bcd60e51b815260206004820152601160248201527f736c6963655f6f75744f66426f756e6473000000000000000000000000000000604482015290519081900360640190fd5b606082158015611d845760405191506000825260208201604052611dce565b6040519150601f8416801560200281840101858101878315602002848b0101015b81831015611dbd578051835260209283019201611da5565b5050858452601f01601f1916604052505b50949350505050565b6000611e0d7f0000000000000000000000000000000000000000000000000000000000000000611e08868686611a9c565b611e2b565b949350505050565b6000600160ff1b8210611e2757600080fd5b5090565b600081602001516001600160a01b031682600001516001600160a01b031610611e5357600080fd5b50805160208083015160409384015184516001600160a01b0394851681850152939091168385015262ffffff166060808401919091528351808403820181526080840185528051908301207fff0000000000000000000000000000000000000000000000000000000000000060a085015294901b6bffffffffffffffffffffffff191660a183015260b58201939093527fa20e9909e6fac267512e30f1441a8a3ecc6e7b2c2584042a2baecdfc9bdbcaaf60d5808301919091528251808303909101815260f5909101909152805191012090565b604080516060810182526000808252602082018190529181019190915290565b803561149281612743565b600082601f830112611f62578081fd5b8135611f75611f70826126f5565b6126d1565b818152846020838601011115611f89578283fd5b816020850160208301379081016020019190915292915050565b60006101008284031215610566578081fd5b600060208284031215611fc6578081fd5b8135611fd181612743565b9392505050565b600080600060608486031215611fec578182fd5b8335611ff781612743565b925060208401359150604084013561200e81612743565b809150509250925092565b600080600080600060a08688031215612030578081fd5b853561203b81612743565b945060208601359350604086013561205281612743565b925060608601359150608086013561206981612743565b809150509295509295909350565b60008060008060008060c0878903121561208f578081fd5b863561209a81612743565b95506020870135945060408701359350606087013560ff811681146120bd578182fd5b9598949750929560808101359460a0909101359350915050565b600080602083850312156120e9578182fd5b823567ffffffffffffffff80821115612100578384fd5b818501915085601f830112612113578384fd5b813581811115612121578485fd5b8660208083028501011115612134578485fd5b60209290920196919550909350505050565b60008060408385031215612158578182fd5b505080516020909101519092909150565b6000806000806060858703121561217e578182fd5b8435935060208501359250604085013567ffffffffffffffff808211156121a3578384fd5b818701915087601f8301126121b6578384fd5b8135818111156121c4578485fd5b8860208285010111156121d5578485fd5b95989497505060200194505050565b6000602082840312156121f5578081fd5b815167ffffffffffffffff81111561220b578182fd5b8201601f8101841361221b578182fd5b8051612229611f70826126f5565b81815285602083850101111561223d578384fd5b6112f2826020830160208601612717565b60006020828403121561225f578081fd5b813567ffffffffffffffff80821115612276578283fd5b9083019060a08286031215612289578283fd5b60405160a08101818110838211171561229e57fe5b6040528235828111156122af578485fd5b6122bb87828601611f52565b8252506122ca60208401611f47565b602082015260408301356040820152606083013560608201526080830135608082015280935050505092915050565b6000610100828403121561230b578081fd5b611fd18383611fa3565b600060208284031215612326578081fd5b813567ffffffffffffffff81111561233c578182fd5b820160a08185031215611fd1578182fd5b60006020828403121561235e578081fd5b813567ffffffffffffffff80821115612375578283fd5b9083019060408286031215612388578283fd5b60405160408101818110838211171561239d57fe5b6040528235828111156123ae578485fd5b6123ba87828601611f52565b825250602083013592506123cd83612743565b6020810192909252509392505050565b6000602082840312156123ee578081fd5b813562ffffff81168114611fd1578182fd5b60008060408385031215612412578182fd5b82359150602083013561242481612743565b809150509250929050565b60008060008060808587031215612444578182fd5b84359350602085013561245681612743565b925060408501359150606085013561246d81612743565b939692955090935050565b60008151808452612490816020860160208601612717565b601f01601f19169290920160200192915050565b606093841b6bffffffffffffffffffffffff19908116825260e89390931b7fffffff0000000000000000000000000000000000000000000000000000000000166014820152921b166017820152602b0190565b6000828483379101908152919050565b6001600160a01b0391909116815260200190565b60006001600160a01b038088168352861515602084015285604084015280851660608401525060a0608083015261255560a0830184612478565b979650505050505050565b6000602080830181845280855180835260408601915060408482028701019250838701855b828110156125b357603f198886030184526125a1858351612478565b94509285019290850190600101612585565b5092979650505050505050565b600060208252611fd16020830184612478565b60208082526012908201527f546f6f206d756368207265717565737465640000000000000000000000000000604082015260600190565b60208082526013908201527f546f6f206c6974746c6520726563656976656400000000000000000000000000604082015260600190565b60006020825282516040602084015261265d6060840182612478565b90506001600160a01b0360208501511660408401528091505092915050565b90815260200190565b6000808335601e1984360301811261269b578283fd5b83018035915067ffffffffffffffff8211156126b5578283fd5b6020019150368190038213156126ca57600080fd5b9250929050565b60405181810167ffffffffffffffff811182821017156126ed57fe5b604052919050565b600067ffffffffffffffff82111561270957fe5b50601f01601f191660200190565b60005b8381101561273257818101518382015260200161271a565b83811115610f1c5750506000910152565b6001600160a01b038116811461275857600080fd5b5056fea164736f6c6343000706000a",
  "linkReferences": {},
  "deployedLinkReferences": {}
}